:100000000C9458000C9480000C9480000C94800098
:100010000C9480000C9480000C9480000C94800060
:100020000C9480000C9480000C9480000C94800050
:100030000C9480000C9480000C9480000C94800040
:100040000C94F6040C9480000C9480000C948000B6
:100050000C9480000C9480000C9480000C94800020
:100060000C94D7030C9480000000000025002800A9
:100070002B00040404040404040402020202020229
:10008000030303030303010204081020408001025C
:1000900004081020010204081020000000080002DB
:1000A00001000003040700000000000000004005FC
:1000B00011241FBECFEFD8E0DEBFCDBF22E0AEE3FC
:1000C000B1E001C01D92AE31B207E1F711E0A0E04E
:1000D000B1E0E0E1F3E102C005900D92AE33B1076B
:1000E000D9F710E0C8E5D0E004C02197FE010E94D6
:1000F0008E07C735D107C9F70E9461050C948609A0
:100100000C94000090E0FC01E656FF4F2491FC01A6
:10011000EA57FF4F3491FC01EE58FF4FE491EE2374
:10012000C9F0222339F0233001F1A8F4213019F16C
:10013000223029F1F0E0EE0FFF1FE859FF4FA591A3
:10014000B4918FB7F894EC91611126C030953E239D
:100150003C938FBF08952730A9F02830C9F0243090
:1001600049F7809180008F7D03C0809180008F7758
:1001700080938000DFCF84B58F7784BDDBCF84B5DB
:100180008F7DFBCF8091B0008F778093B000D2CF6E
:100190008091B0008F7DF9CF3E2BDACF2091B50151
:1001A000260F3327331F21323105ECF42091DB0178
:1001B000FC0190E080E0243069F082E00895A09195
:1001C000B5012191AC014D565E4FA40FB52FB11D65
:1001D0002C930196861798F38091B501680F609370
:1001E000B50180E0089581E008951092DB0181E07F
:1001F0008093DD011092DC0161E082E10E948200C7
:1002000061E083E10E948200E9EBF0E080818E7F73
:10021000808380818D7F808388E48093B80085E42B
:100220008093BC000895CF93DF9391E09093920167
:100230008823B9F0C091B800D091BA008091BC0079
:100240008A7B8093BC0060E082E10E94820060E0D3
:1002500083E10E9482000E94F500D093BA00C0930F
:10026000B800DF91CF910895089508950895E09121
:100270008A0180918901E81730F4F0E0E759FE4FD8
:10028000808190E008958FEF9FEF089590918A010B
:10029000809189012FEF3FEF981748F4E92FF0E0A4
:1002A000E759FE4F208130E09F5F90938A01C9019A
:1002B00008958091890190918A01891B990B089575
:1002C000CF92DF92EF92FF920F931F93CF93DF9322
:1002D0007C01CB018A0120916801222389F0EB0186
:1002E0006B01C40ED51ECC15DD0569F06991D701EF
:1002F000ED91FC910190F081E02DC7010995F3CFBC
:10030000642F0E94CE00C801DF91CF911F910F9101
:10031000FF90EF90DF90CF900895CF93DF931F92DF
:10032000CDB7DEB76983209168012223F9F02091CF
:100330008B01203258F021E030E0FC01338322832E
:1003400090E080E00F90DF91CF91089580918C0133
:10035000E82FF0E0E85BFE4F998190838F5F8093F8
:100360008C0180938B0181E090E0ECCF61E0CE01C5
:1003700001960E94CE00F7CF3FB7F89480914401D8
:1003800090914501A0914601B091470126B5A89BE7
:1003900005C02F3F19F00196A11DB11D3FBFBA2F17
:1003A000A92F982F8827BC01CD01620F711D811DD7
:1003B000911D42E0660F771F881F991F4A95D1F75C
:1003C00008958F929F92AF92BF92CF92DF92EF9259
:1003D000FF924B015C010E94BC016B017C010E94F9
:1003E000BC016C197D098E099F09683E7340810527
:1003F0009105A8F321E0821A9108A108B10888EEBE
:10040000C80E83E0D81EE11CF11C81149104A104E4
:10041000B10429F7FF90EF90DF90CF90BF90AF909D
:100420009F908F900895AF92BF92CF92DF92EF92FC
:10043000FF920F931F93CF93DF936C017B018B018E
:10044000040F151FEB015E01AE18BF08C017D107DE
:1004500059F06991D601ED91FC910190F081E02D68
:10046000C6010995892B79F7C501DF91CF911F91BD
:100470000F91FF90EF90DF90CF90BF90AF900895D5
:10048000CF92DF92EF92FF920F931F93CF93DF9360
:10049000FC01C48121E020936801C0933E011092C9
:1004A0008C0110928B018485682B81E092E00E9480
:1004B0008D01D0918B01D13208F092C00E94BC0115
:1004C0006B017C018091DB01811165C082E080932A
:1004D000DB0181E08093DD018FEF8093DA011092E0
:1004E000FF01D093FE01A8E4B1E0EEEDF1E080E081
:1004F000D81385C01092000280910002CC0FC82B47
:10050000C09300028091DC01813009F07CC0109220
:10051000DC010E94BC016B017C0180910002809390
:10052000BB0080918E0190918F01A0919001B091BC
:100530009101892B8A2B8B2B99F00E94BC01009191
:100540008E0110918F0120919001309191016C19D1
:100550007D098E099F090617170728073907E0F15B
:100560008091BC0083FDD9CF85EC8093BC000E94B4
:10057000BC016B017C018091DB01823009F445C034
:100580008091DA018F3F61F18091DA01803241F18F
:100590008091DA0125C080918E0190918F01A09108
:1005A0009001B0919101892B8A2B8B2B09F48ACF72
:1005B0000E94BC0100918E0110918F012091900149
:1005C000309191016C197D098E099F090617170753
:1005D0002807390708F076CF80918D010E9413011A
:1005E00010928C0110928B0110926801DF91CF91D3
:1005F0001F910F91FF90EF90DF90CF9008959D9104
:1006000091938F5F75CF85EEB0CF80918E019091E1
:100610008F01A0919001B0919101892B8A2B8B2B96
:1006200009F4A9CF0E94BC0100918E0110918F01A5
:1006300020919001309191016C197D098E099F09DB
:10064000061717072807390708F095CFC5CF089573
:1006500090E080E0089585ED8093BC0080918E014C
:1006600090918F01A0919001B09191010796A11DE9
:10067000B11D23E0B695A795979587952A95D1F753
:100680002091BC0024FD03C01092DB01089540912D
:100690008E0150918F016091900170919101452BD5
:1006A000462B472B69F30097A105B10541F02AE2DB
:1006B0002A95F1F700C00197A109B109E1CF809116
:1006C0008D010C9413010F931F93CF93DF93EC01D3
:1006D00088819981009759F02A813B812617370735
:1006E00030F081E0DF91CF911F910F9108958B0140
:1006F0006F5F7F4F0E94B908009759F099838883F4
:100700001B830A832C813D81232B59F7FC01108226
:10071000E8CF80E0E7CF0F931F93CF938C01C62FD4
:100720000E9440026C2F6460C8010E9440026C2F3E
:100730006B7FC8010E94400283EC90E00197F1F7C3
:10074000CF911F910F9108950F931F93CF93DF9334
:100750008C01D62FC42F607F642B0E948B0380E115
:10076000D89FB00111246C2BC801DF91CF911F914C
:100770000F910C948B0340E060E88DE092E00C94C4
:10078000A40340E061E08DE092E00E94A4038BE3CB
:100790009FE10197F1F78091160281110C94BB0340
:1007A000089541E00E94A40381E090E008951F9223
:1007B0000F920FB60F9211242F933F934F935F9395
:1007C0006F937F938F939F93AF93BF93EF93FF9319
:1007D0008091B900887F803609F44AC0F0F58832EC
:1007E00009F4A7C018F5803109F49BC0B8F4882338
:1007F00009F4F9C0883009F494C0FF91EF91BF91DA
:10080000AF919F918F917F916F915F914F913F91A8
:100810002F910F900FBE0F901F901895883109F4FB
:1008200088C0803251F78093DA0114C0803409F413
:100830009DC040F48033B9F38833F9F68093DA0130
:1008400085ECB0C0803509F485C0883509F496C0C0
:10085000883499F60E942B03D0CF883909F48CC0D4
:1008600038F5883729F050F4883611F0803729F6AA
:1008700083E08093DB011092D90157C0883809F4D6
:100880007BC0803919F0803809F0B7CF8091D90149
:10089000803208F071C0E091D90181E08E0F809321
:1008A000D9018091BB00F0E0E754FE4F80833DC04A
:1008B000803B39F0E0F4803A09F479C0883A09F0D5
:1008C0009CCF84E08093DB011092B6011092B501B9
:1008D000E091B301F091B40109958091B5018111C6
:1008E0000FC081E08093B5011092930109C0803C54
:1008F00009F4A6CF883C09F4A3CF883B09F07DCF4B
:10090000E091B60181E08E0F8093B601F0E0ED56E4
:10091000FE4F80818093BB009091B6018091B5011C
:1009200029C0809100028093BB0085EC8093BC00BD
:1009300064CF9091FF018091FE01981758F5E091E6
:10094000FF0181E08E0F8093FF01F0E0E252FE4F45
:100950008081E9CFE091FF0181E08E0F8093FF015C
:100960008091BB00F0E0E252FE4F80839091FF0146
:100970008091FE019817C8F285E8D8CFE091FF0179
:1009800081E08E0F8093FF018091BB00F0E0E25286
:10099000FE4F80838091DD0181115CCF81E08093E7
:1009A000DC0184EA8093BC001092DB0126CF85EC49
:1009B0008093BC001092DB018091D901803230F429
:1009C000E091D901F0E0E754FE4F10826091D90127
:1009D00070E0E091B701F091B80189EB91E00995E1
:1009E0001092D9010ACF1092DA0134CF1F920F92E0
:1009F0000FB60F9211242F933F938F939F93AF9332
:100A0000BF938091400190914101A0914201B0912A
:100A1000430130913F0123E0230F2D3758F5019614
:100A2000A11DB11D20933F0180934001909341018E
:100A3000A0934201B09343018091440190914501FC
:100A4000A0914601B09147010196A11DB11D80936F
:100A5000440190934501A0934601B0934701BF9193
:100A6000AF919F918F913F912F910F900FBE0F905B
:100A70001F90189526E8230F0296A11DB11DD2CF15
:100A8000E1E0F2E01382128288EE93E0A0E0B0E0B1
:100A900084839583A683B7838AE091E091838083E2
:100AA000EDE0F2E0138212828CE191E09183808389
:100AB000118687E2848380E1828782E083871486BF
:100AC0000895CF93DF93CDB7DEB7A7970FB6F8940D
:100AD000DEBF0FBECDBF789484B5826084BD84B57F
:100AE000816084BD85B5826085BD85B5816085BD29
:100AF00080916E00816080936E00109281008091E1
:100B00008100826080938100809181008160809368
:100B10008100809180008160809380008091B1008D
:100B200084608093B1008091B00081608093B000B8
:100B300080917A00846080937A0080917A0082604C
:100B400080937A0080917A00816080937A0080910E
:100B50007A00806880937A001092C10010928A0116
:100B60001092890110928C0110928B010E94F50065
:100B700084E391E09093B4018093B30185E391E025
:100B80009093B8018093B7011092120280911802DD
:100B9000823018F098E0909312028093150262E37D
:100BA00070E080E090E00E94E101609119028DE028
:100BB00092E00E94400268EE73E080E090E00E94C4
:100BC000E10160E38DE092E00E948B030BE416E408
:100BD000C8010197F1F760E38DE092E00E948B037A
:100BE000C8010197F1F760E38DE092E00E948B036A
:100BF00083E592E00197F1F760E28DE092E00E94D8
:100C00008B0360911202606240E08DE092E00E94EE
:100C1000A40384E08093130240E06CE08DE092E056
:100C20000E94A4030E94C10382E08093140240E06A
:100C300066E08DE092E00E94A40340E062E08DE077
:100C400092E00E94A4038BE39FE10197F1F788E013
:100C50008093190260E08DE092E00E9440020E94C1
:100C6000BB034FE050E064E271E08DE092E00E944F
:100C7000130260ED77E080E090E00E94E10188EEF1
:100C8000482E83E0582E612C712C8E010F5F1F4F70
:100C900090E0A92E90E0B92E2FB7F8946091400112
:100CA0007091410180914201909143012FBF1BA29D
:100CB0001AA21DA21CA21FA21EA2A30192010E94A1
:100CC0006C07CA01B9012AE0A8010E940307F801D4
:100CD00001900020E9F731977F01E01AF10AB7018E
:100CE000CE0182960E9463032AA13BA181116DC0AF
:100CF0002115310519F0C9010E9430081BA21AA262
:100D00001FA21EA21DA21CA21A8219821C821B8273
:100D10001E821D8269E070E0C8010E946303298180
:100D20003A81811159C02115310519F0C9010E947C
:100D300030081A8219821E821D821C821B82CAA060
:100D4000DBA0C114D10409F451C0EEA0FFA0E1144E
:100D5000F104B1F08D819E81E80EF91EB701C80142
:100D60000E946303882309F441C029813A818D815F
:100D70009E81B601820F931F0E947F09FE82ED8241
:100D80000E94C1030E94BB034D815E8169817A810B
:100D90008DE092E00E94130289819A81009711F000
:100DA0000E9430088AA19BA1009711F00E94300890
:100DB00068EE73E080E090E00E94E101A114B104CC
:100DC00009F46ACF0E94000067CFFFA2EEA2B8012B
:100DD000C9010E947F0998CF89E090E09E838D83AE
:100DE00064E371E0C9010E947F09A9CF89819A81DA
:100DF000009711F00E9430081A8219821E821D820B
:100E00001C821B82BDCFBB27FA01A62F621771057A
:100E100081059105330B30FB66F0AA27660F771F1B
:100E2000881F991FAA1FA21710F0A21B63953850A4
:100E3000A9F7A05DAA3308F0A95DA19336F7B11117
:100E4000B1931082CA010C942507DC01FC01672FC5
:100E500071917723E1F7329704C07C916D93708391
:100E60006291AE17BF07C8F308952F923F924F9239
:100E70005F926F927F928F929F92AF92BF92CF922A
:100E8000DF92EF92FF920F931F93CF93DF93CDB733
:100E9000DEB7CA1BDB0B0FB6F894DEBF0FBECDBFAB
:100EA00009942A88398848885F846E847D848C847C
:100EB0009B84AA84B984C884DF80EE80FD800C8185
:100EC0001B81AA81B981CE0FD11D0FB6F894DEBF68
:100ED0000FBECDBFED010895A1E21A2EAA1BBB1BC8
:100EE000FD010DC0AA1FBB1FEE1FFF1FA217B307F6
:100EF000E407F50720F0A21BB30BE40BF50B661F0C
:100F0000771F881F991F1A9469F7609570958095CF
:100F100090959B01AC01BD01CF010895EE0FFF1F1D
:100F20000590F491E02D09940F931F93CF93DF93D5
:100F30008230910510F482E090E0E0911C02F09183
:100F40001D0230E020E0B0E0A0E0309799F42115D8
:100F5000310509F44AC0281B390B24303105D8F576
:100F60008A819B816115710589F1FB0193838283DD
:100F7000FE0111C040815181028113814817590738
:100F8000E0F04817590799F4109761F012960C9306
:100F9000129713961C933296CF01DF91CF911F9138
:100FA0000F91089500931C0210931D02F4CF211598
:100FB000310551F04217530738F0A901DB019A01BE
:100FC000BD01DF01F801C1CFEF01F9CF90931D0200
:100FD00080931C02CDCFFE01E20FF31F819391930A
:100FE0002250310939832883D7CF20911A023091BA
:100FF0001B02232B41F42091020130910301309315
:101000001B0220931A022091000130910101211549
:10101000310541F42DB73EB74091040150910501CF
:10102000241B350BE0911A02F0911B02E217F30723
:10103000A0F42E1B3F0B2817390778F0AC014E5F48
:101040005F4F2417350748F04E0F5F1F50931B0268
:1010500040931A02819391939FCFF0E0E0E09CCF00
:10106000CF93DF930097E9F0FC013297138212824D
:10107000A0911C02B0911D02ED0130E020E010971C
:10108000A1F420813181820F931F20911A023091A7
:101090001B022817390709F061C0F0931B02E09387
:1010A0001A02DF91CF910895EA01CE17DF07E8F524
:1010B0004A815B819E0141155105B1F7E901FB832E
:1010C000EA8349915991C40FD51FEC17FD0761F4CC
:1010D000808191810296840F951FE901998388830D
:1010E000828193819B838A83F0E0E0E012968D9168
:1010F0009C9113970097B9F52D913C911197CD01D3
:101100000296820F931F20911A0230911B0228171A
:10111000390739F6309751F510921D0210921C02D2
:10112000B0931B02A0931A02BCCFD383C283408129
:101130005181840F951FC817D90761F44E5F5F4F27
:1011400088819981480F591F518340838A819B81EF
:10115000938382832115310509F0B0CFF0931D02EE
:10116000E0931C029ECFFD01DC01C0CF13821282EE
:10117000D7CFB0E0A0E0EFEBF8E00C9437078C019C
:10118000009751F4CB010E9494078C01C801CDB7A0
:10119000DEB7E0E10C945307FC01E60FF71F9C015A
:1011A00022503109E217F30708F49DC0D901CD910F
:1011B000DC911197C617D70798F0C530D10530F3E9
:1011C000CE0104978617970708F3C61BD70B229703
:1011D000C193D1936D937C93CF010E943008D6CFF9
:1011E0005B01AC1ABD0A4C018C0E9D1EA0911C0225
:1011F000B0911D02512C412CF12CE12C109731F5AE
:1012000080911A0290911B028815990509F05CC023
:101210004616570608F058C08091000190910101D0
:10122000009741F48DB79EB740910401509105019C
:10123000841B950BE817F90708F055C0F0931B02C3
:10124000E0931A02F90171836083A0CF8D919C9184
:10125000119712966C90129713967C901397A8157D
:10126000B90559F56C0142E0C40ED11CCA14DB0467
:1012700020F1AC014A195B09DA011296159780F04A
:101280006282738251834083D9016D937C93E11410
:10129000F10471F0D7011396FC93EE93129776CF79
:1012A00022968C0F9D1FF90191838083F301EFCF6C
:1012B000F0931D02E0931C0269CF4816590608F40A
:1012C0002C017D01D3019ACFCB010E9494077C01B0
:1012D000009749F0AE01B8010E947609C8010E944A
:1012E0003008870153CF10E000E050CFFB01DC0154
:1012F00002C001900D9241505040D8F70895FB0173
:10130000DC0101900D920020E1F70895F894FFCFE1
:1013100000001E028000000000008D016001280313
:10132000360159014601370100000000D1031302C4
:101330002803270348656C6C6F2C20493243204CEE
:0E13400043442100436F756E7465723A2000BD
:00000001FF
