:100000000C945D000C9485000C9485000C94850084
:100010000C9485000C9485000C9485000C9485004C
:100020000C9485000C9485000C9485000C9485003C
:100030000C9485000C9485000C9485000C9485002C
:100040000C943B060C9485000C94AB060C9485062E
:100050000C9485000C9485000C9485000C9485000C
:100060000C941C050C94850000000000240027005F
:100070002A0000000000250028002B0004040404CE
:100080000404040402020202020203030303030342
:10009000010204081020408001020408102001021F
:1000A00004081020000000080002010000030407FB
:1000B0000000000000000000DD0611241FBECFEF8D
:1000C000D8E0DEBFCDBF11E0A0E0B1E0E8EAF1E1A9
:1000D00002C005900D92AA36B107D9F722E0AAE630
:1000E000B1E001C01D92A33EB207E1F710E0CDE5FB
:1000F000D0E004C02197FE010E94CC08CC35D10786
:10010000C9F70E9426070C94D2080C940000209195
:10011000E101260F3327331F21323105ECF4209102
:100120000702FC0190E080E0243069F082E008954D
:10013000A091E1012191AC0141545E4FA40FB52F74
:10014000B11D2C930196861798F38091E101680FF9
:100150006093E10180E0089581E008950895089595
:100160000895E091B6018091B501E81730F4F0E010
:10017000EB56FE4F808190E008958FEF9FEF08953A
:100180009091B6018091B5012FEF3FEF981748F499
:10019000E92FF0E0EB56FE4F208130E09F5F909317
:1001A000B601C90108958091B5019091B601891BEE
:1001B000990B0895CF92DF92EF92FF920F931F93C6
:1001C000CF93DF937C01CB018A01209194012223FC
:1001D00089F0EB016B01C40ED51ECC15DD0569F06D
:1001E0006991D701ED91FC910190F081E02DC7015B
:1001F0000995F3CF642F0E948700C801DF91CF914A
:100200001F910F91FF90EF90DF90CF900895CF93C3
:10021000DF931F92CDB7DEB769832091940122232B
:10022000F9F02091B701203258F021E030E0FC01D4
:100230003383228390E080E00F90DF91CF91089587
:100240008091B801E82FF0E0EC58FE4F998190833F
:100250008F5F8093B8018093B70181E090E0ECCF8D
:1002600061E0CE0101960E948700F7CF90E0FC018B
:10027000EC55FF4F2491FC01E057FF4F3491FC01F6
:10028000E458FF4FE491EE23C9F0222339F02330E4
:1002900001F1A8F4213019F1223029F1F0E0EE0F3C
:1002A000FF1FEE58FF4FA591B4918FB7F894EC91D2
:1002B000611126C030953E233C938FBF08952730AF
:1002C000A9F02830C9F0243049F7809180008F7D53
:1002D00003C0809180008F7780938000DFCF84B54A
:1002E0008F7784BDDBCF84B58F7DFBCF8091B0004D
:1002F0008F778093B000D2CF8091B0008F7DF9CFFF
:100300003E2BDACF1092070281E08093090210920F
:10031000080261E082E10E94360161E083E10E940F
:100320003601E9EBF0E080818E7F808380818D7FD4
:10033000808388E48093B80085E48093BC000895AE
:10034000CF93DF9391E09093BE018823B9F0C091E1
:10035000B800D091BA008091BC008A7B8093BC0029
:1003600060E082E10E94360160E083E10E94360194
:100370000E948201D093BA00C093B800DF91CF9160
:1003800008953FB7F8948091700190917101A09108
:100390007201B091730126B5A89B05C02F3F19F0DB
:1003A0000196A11DB11D3FBFBA2FA92F982F8827F5
:1003B000BC01CD01620F711D811D911D42E0660FD0
:1003C000771F881F991F4A95D1F708958F929F92A2
:1003D000AF92BF92CF92DF92EF92FF924B015C01FE
:1003E0000E94C1016B017C010E94C1016C197D0951
:1003F0008E099F09683E734081059105A8F321E0AD
:10040000821A9108A108B10888EEC80E83E0D81EB0
:10041000E11CF11C81149104A104B10429F7FF909F
:10042000EF90DF90CF90BF90AF909F908F90089506
:10043000AF92BF92CF92DF92EF92FF920F931F93F2
:10044000CF93DF936C017B018B01040F151FEB0130
:100450005E01AE18BF08C017D10759F06991D601E7
:10046000ED91FC910190F081E02DC6010995892B59
:1004700079F7C501DF91CF911F910F91FF90EF9018
:10048000DF90CF90BF90AF900895FC01538D448DC5
:10049000252F30E0842F90E0821B930B541710F02F
:1004A000CF96089501970895FC01918D828D98173C
:1004B00061F0A28DAE0FBF2FB11D5D968C91928D14
:1004C0009F5F9F73928F90E008958FEF9FEF089545
:1004D000FC01918D828D981731F0828DE80FF11D0E
:1004E000858D90E008958FEF9FEF0895FC01918D29
:1004F000228D892F90E0805C9F4F821B91098F7322
:100500009927089589E392E00E94760221E0892BE1
:1005100009F420E0822F089580E090E0892B29F0F3
:100520000E94820281110C9400000895FC01A48DA8
:10053000A80FB92FB11DA35ABF4F2C91848D90E005
:1005400001968F739927848FA689B7892C93A089E8
:10055000B1898C91837080648C93938D848D981372
:1005600006C00288F389E02D80818F7D8083089505
:10057000EF92FF920F931F93CF93DF93EC0181E0F3
:10058000888F9B8D8C8D98131AC0E889F98980819A
:1005900085FF15C09FB7F894EE89FF896083E889CD
:1005A000F98980818370806480839FBF81E090E0BF
:1005B000DF91CF911F910F91FF90EF900895F62E4C
:1005C0000B8D10E00F5F1F4F0F731127E02E8C8DE6
:1005D0008E110CC00FB607FCFACFE889F98980812B
:1005E00085FFF5CFCE010E949602F1CFEB8DEC0F87
:1005F000FD2FF11DE35AFF4FF0829FB7F8940B8F48
:10060000EA89FB8980818062CFCFCF93DF93EC01B1
:10061000888D8823B9F0AA89BB89E889F9898C91EA
:1006200085FD03C0808186FD0DC00FB607FCF7CFA6
:100630008C9185FFF2CF808185FFEDCFCE010E94A6
:100640009602E9CFDF91CF910895CF92DF92EF929A
:10065000FF920F931F93CF93DF93FC01C48121E09E
:1006600020939401C0936A011092B8011092B701CF
:100670008485682B8DE292E00E940701D091B7013A
:10068000D13208F092C00E94C1016B017C018091BF
:100690000702811165C082E08093070281E08093A8
:1006A00009028FEF8093060210922B02D0932A0248
:1006B000A4E7B1E0EAE0F2E080E0D81385C0109250
:1006C0002C0280912C02CC0FC82BC0932C0280915D
:1006D0000802813009F07CC0109208020E94C1011A
:1006E0006B017C0180912C028093BB008091BA0148
:1006F0009091BB01A091BC01B091BD01892B8A2BC7
:100700008B2B99F00E94C1010091BA011091BB019D
:100710002091BC013091BD016C197D098E099F09A2
:100720000617170728073907E0F18091BC0083FD01
:10073000D9CF85EC8093BC000E94C1016B017C0184
:1007400080910702823009F445C0809106028F3FF4
:1007500061F180910602803241F18091060225C04C
:100760008091BA019091BB01A091BC01B091BD01F3
:10077000892B8A2B8B2B09F48ACF0E94C10100910F
:10078000BA011091BB012091BC013091BD016C19DF
:100790007D098E099F09061717072807390708F0F2
:1007A00076CF8091B9010E94A0011092B8011092F9
:1007B000B70110929401DF91CF911F910F91FF909B
:1007C000EF90DF90CF9008959D9191938F5F75CFBB
:1007D00085EEB0CF8091BA019091BB01A091BC0190
:1007E000B091BD01892B8A2B8B2B09F4A9CF0E94D4
:1007F000C1010091BA011091BB012091BC0130915F
:10080000BD016C197D098E099F0906171707280776
:10081000390708F095CFC5CF089590E080E008959E
:100820008F929F92AF92BF920F931F93CF93DF93BC
:10083000CDB7DEB7A1970FB6F894DEBF0FBECDBF20
:1008400019A2423008F44AE08E010F5D1F4F842E3A
:10085000912CB12CA12CA50194010E94AA08E62F8D
:10086000B901CA01EA3044F5E05DD801EE938D018B
:10087000232B242B252B79F790E080E0109769F04B
:10088000FD0101900020E9F73197AF014A1B5B0B96
:10089000BD0186ED92E00E941802A1960FB6F89471
:1008A000DEBF0FBECDBFDF91CF911F910F91BF90E3
:1008B000AF909F908F900895E95CD7CFFC01019095
:1008C0000020E9F73197AF01481B590BBC0186EDB9
:1008D00092E00C94180285ED8093BC008091BA01DF
:1008E0009091BB01A091BC01B091BD010796A11DE3
:1008F000B11D23E0B695A795979587952A95D1F7D1
:100900002091BC0024FD03C010920702089540917D
:10091000BA015091BB016091BC017091BD01452BA2
:10092000462B472B69F30097A105B10541F02AE258
:100930002A95F1F700C00197A109B109E1CF809193
:10094000B9010C94A0010F931F93CF938C01C62F74
:100950000E9425036C2F6460C8010E9425036C2F40
:100960006B7FC8010E94250383EC90E00197F1F7AB
:10097000CF911F910F9108950F931F93CF93DF9302
:100980008C01D62FC42F607F642B0E94A30480E1CA
:10099000D89FB00111246C2BC801DF91CF911F911A
:1009A0000F910C94A304CF93DF93CDB7DEB72897B4
:1009B0000FB6F894DEBF0FBECDBF98E0E0E0F1E0E7
:1009C000DE01119601900D929A95E1F79091DE0269
:1009D000981708F48FEF90E0880F991F21E030E01E
:1009E0002C0F3D1F820F931FFC016081606840E067
:1009F00086ED92E028960FB6F894DEBF0FBECDBF0D
:100A0000DF91CF910C94BC0440E061E086ED92E070
:100A10000E94BC048BE39FE10197F1F78091DF0214
:100A2000882319F080E00C94D304089541E00E94DB
:100A3000BC0481E090E008951F920F920FB60F92D0
:100A400011242F933F934F935F936F937F938F93D3
:100A50009F93AF93BF93EF93FF938091B900887FEB
:100A6000803609F44AC0F0F5883209F4A7C018F5B9
:100A7000803109F49BC0B8F4882309F4F9C08830A8
:100A800009F494C0FF91EF91BF91AF919F918F9125
:100A90007F916F915F914F913F912F910F900FBE7A
:100AA0000F901F901895883109F488C0803251F753
:100AB0008093060214C0803409F49DC040F4803352
:100AC000B9F38833F9F68093060285ECB0C080351F
:100AD00009F485C0883509F496C0883499F60E94D7
:100AE0006B04D0CF883909F48CC038F5883729F0E9
:100AF00050F4883611F0803729F683E0809307029E
:100B00001092050257C0883809F47BC0803919F06B
:100B1000803809F0B7CF80910502803208F071C0AB
:100B2000E091050281E08E0F809305028091BB0069
:100B3000F0E0EB51FE4F80833DC0803B39F0E0F4A4
:100B4000803A09F479C0883A09F09CCF84E0809318
:100B500007021092E2011092E101E091DF01F091B1
:100B6000E00109958091E10181110FC081E080933E
:100B7000E1011092BF0109C0803C09F4A6CF883C76
:100B800009F4A3CF883B09F07DCFE091E20181E039
:100B90008E0F8093E201F0E0E154FE4F808180935C
:100BA000BB009091E2018091E10129C080912C026B
:100BB0008093BB0085EC8093BC0064CF90912B02A6
:100BC00080912A02981758F5E0912B0281E08E0F50
:100BD00080932B02F0E0E65FFD4F8081E9CFE0914A
:100BE0002B0281E08E0F80932B028091BB00F0E0FE
:100BF000E65FFD4F808390912B0280912A02981727
:100C0000C8F285E8D8CFE0912B0281E08E0F809367
:100C10002B028091BB00F0E0E65FFD4F8083809166
:100C2000090281115CCF81E08093080284EA8093FD
:100C3000BC001092070226CF85EC8093BC00109276
:100C4000070280910502803230F4E0910502F0E065
:100C5000EB51FE4F10826091050270E0E091E301DC
:100C6000F091E40185EE91E00995109205020ACF1A
:100C70001092060234CF1F920F920FB60F921124DA
:100C80002F933F938F939F93AF93BF9380916C016A
:100C900090916D01A0916E01B0916F0130916B0147
:100CA00023E0230F2D3758F50196A11DB11D209388
:100CB0006B0180936C0190936D01A0936E01B093D2
:100CC0006F018091700190917101A0917201B091BA
:100CD00073010196A11DB11D809370019093710164
:100CE000A0937201B0937301BF91AF919F918F91C7
:100CF0003F912F910F900FBE0F901F90189526E8EF
:100D0000230F0296A11DB11DD2CF1F920F920FB6D5
:100D10000F9211242F933F934F935F936F937F9381
:100D20008F939F93AF93BF93EF93FF9389E392E0E9
:100D30000E949602FF91EF91BF91AF919F918F9189
:100D40007F916F915F914F913F912F910F900FBEC7
:100D50000F901F9018951F920F920FB60F921124AB
:100D60002F938F939F93EF93FF93E0914902F0911C
:100D70004A028081E0914F02F091500282FD1BC037
:100D80009081809152028F5F8F732091530282175E
:100D900041F0E0915202F0E0E75CFD4F958F8093C7
:100DA0005202FF91EF919F918F912F910F900FBE63
:100DB0000F901F9018958081F4CFEDE2F2E013823E
:100DC000128288EE93E0A0E0B0E084839583A6834E
:100DD000B7832CE031E031832083E9E3F2E0138232
:100DE000128284839583A683B7838EE191E09183F9
:100DF000808385EC90E09587848784EC90E09787EA
:100E0000868780EC90E0918B808B81EC90E0938BD7
:100E1000828B82EC90E0958B848B86EC90E0978BB4
:100E2000868B118E128E138E148EE6EDF2E01382F5
:100E3000128280E391E091838083118687E284832C
:100E400080E1828782E0838714860895789484B550
:100E5000826084BD84B5816084BD85B5826085BDB6
:100E600085B5816085BD80916E00816080936E0044
:100E70001092810080918100826080938100809136
:100E800081008160809381008091800081608093E7
:100E900080008091B10084608093B1008091B000A7
:100EA00081608093B00080917A00846080937A00A2
:100EB00080917A00826080937A0080917A008160CC
:100EC00080937A0080917A00806880937A001092F3
:100ED000C100E3E9F0E02491EFE7F0E0849188239A
:100EE00099F090E0880F991FFC01E859FF4FA591F8
:100EF000B491FC01EE58FF4F859194918FB7F8940F
:100F0000EC91E22BEC938FBFE0914902F0914A0201
:100F100082E08083E0914502F09146021082E091E8
:100F20004702F09148028FEC808310925102E091C9
:100F30004D02F0914E0286E08083E0914B02F091E9
:100F40004C02808180618083E0914B02F0914C02E1
:100F5000808188608083E0914B02F0914C02808117
:100F600080688083E0914B02F0914C0280818F7DFC
:100F700080831092B6011092B5011092B8011092C0
:100F8000B7010E9482018EEA90E09093E001809385
:100F9000DF018FEA90E09093E4018093E3011092E7
:100FA000DB028091E102823018F098E09093DB023E
:100FB0008093DE0262E370E080E090E00E94E60150
:100FC0006091E20286ED92E00E94250368EE73E0F4
:100FD00080E090E00E94E60160E386ED92E00E94EE
:100FE000A304CBE4D6E4CE010197F1F760E386EDEC
:100FF00092E00E94A3042197F1F760E386ED92E06E
:101000000E94A30483E592E00197F1F760E286ED88
:1010100092E00E94A3046091DB02606240E086EDF2
:1010200092E00E94BC0484E08093DC0240E06CE02B
:1010300086ED92E00E94BC040E94040582E0809349
:10104000DD0240E066E086ED92E00E94BC0440E0F4
:1010500062E086ED92E00E94BC048BE39FE1019781
:10106000F1F788E08093E20260E086ED92E00E9472
:10107000250380E00E94D30488E391E00E945E048F
:1010800060ED77E080E090E00E94E6010E940405B8
:1010900080E4B82E00E010E0B0927C0080917A00ED
:1010A000806480937A0080917A0086FDFCCFC091A5
:1010B0007800D091790080E00E94D30484E491E02C
:1010C0000E945E046E010D2E000CEE08FF084AE03F
:1010D000C701B601F7FE0EC041E06DE286ED92E079
:1010E0000E94BC0466277727CB016C197D098E0905
:1010F0009F094AE00E94100487E591E00E945E0487
:10110000C436D105ECF461E083E00E94360181E051
:101110000E94D3048DE491E00E945E0464E670E0D6
:1011200080E090E00E94E6010115110509F4B4CFBA
:101130000E948202882309F4AFCF0E940000ACCF46
:1011400060E083E00E94360181E00E94D3048BE5D9
:1011500091E0E2CFA1E21A2EAA1BBB1BFD010DC03C
:10116000AA1FBB1FEE1FFF1FA217B307E407F50757
:1011700020F0A21BB30BE40BF50B661F771F881F33
:10118000991F1A9469F760957095809590959B01C9
:10119000AC01BD01CF010895EE0FFF1F0590F49142
:0811A000E02D0994F894FFCF43
:1011A8000000400014005400000000000701DA00AD
:1011B8000D04B000D300C000B10000000000B80268
:1011C8001802450205037602540268020000000076
:1011D800160518020D040C045374617274696E6765
:1011E8002E2E2E0053656E736F723A20005661637F
:1011F800682064656E2120202020004B686F6E6790
:0A12080020766163682064656E00C3
:00000001FF
